:020000040800F2
:1000000010470020B9030008B93D0008BB3D0008B7
:10001000BF3D0008C33D0008C73D000800000000C8
:100020000000000000000000000000004501000882
:10003000CB3D00080000000089010008D521000820
:10004000D3030008D3030008D3030008D303000838
:10005000D3030008D3030008D3030008D303000828
:10006000D3030008D3030008D3030008D303000818
:10007000D3030008D3030008D3030008D303000808
:10008000D3030008D3030008D3030008D3030008F8
:10009000D3030008D3030008D3030008D3030008E8
:1000A000D3030008D3030008D3030008D3030008D8
:1000B000CD3D0008D3030008D3030008D303000894
:1000C000D3030008D3030008D3030008D3030008B8
:1000D000D3030008FD3D0008D3030008D303000844
:1000E000D3030008D3030008D3030008D303000898
:1000F000D3030008D3030008D3030008D303000888
:10010000D3030008D3030008D3030008D303000877
:10011000D3030008D3030008D3030008D303000867
:10012000D3030008D3030008D3030008D303000857
:10013000DFF80CD006F008FF00480047773D0008C4
:1001400010470020224B19680868B0E8F00F80F3D0
:100150000988BFF36F8F4FF0000080F311884EF0D5
:100160000D0E70470000000006480068006880F32C
:10017000088862B661B6BFF34F8FBFF36F8F00DFA1
:1001800000BF00BF08ED00E0EFF30980BFF36F8F01
:100190000F4B1A6820E9F00F106008B54FF0BF0050
:1001A00080F31188BFF34F8FBFF36F8F02F090FC85
:1001B0004FF0000080F31188BDE808401968086816
:1001C000B0E8F00F80F30988BFF36F8F704700BF6E
:1001D00044000020EFF30580704700000CB50020BC
:1001E000019000906B48006840F4803069490860D5
:1001F00000BF6848006800F4003000900198401C7F
:100200000190009818B90198B0F5A06FF1D161483C
:10021000006810F4003F02D00120009001E00020AF
:1002200000900098012842D15B48006840F010001F
:10023000594908600846006820F003000860084635
:10024000006840F002000860524840685149486028
:100250000846406848600846406840F4806048604E
:100260000846406820F47C1048600846406840F426
:10027000E81048600846006840F08070086000BFE1
:100280004448006810F0007FFAD04248406820F0EF
:100290000300404948600846406840F0020048605A
:1002A00000BF3C48406800F00C000828F9D10CBDA4
:1002B00010B5FFF793FF10BD10B53648006840F049
:1002C0000100344908600846406834490840314913
:1002D000486008460068324908402E4908600846D0
:1002E000006820F4802008600846406820F4FE0082
:1002F00048604FF41F008860FFF7DAFF4FF000609E
:100300002849086010BD10B5002100200022214BB3
:100310005B6803F00C0121B1042906D0082928D11B
:1003200007E0214B214C236027E01F4B1F4C23602B
:1003300023E0184B5B6803F47010164B5B6803F402
:100340008032022303EB904022B9194B4343174CF0
:1003500023600DE00F4B5B6813F4003F04D0144B97
:100360004343124C236003E00F4B43430F4C236085
:1003700003E00D4B0D4C236000BF00BF054B5B68D5
:10038000C3F303130B4CE15C084B1B68CB40074CD9
:10039000236010BD00100240002002400000FFF862
:1003A000FFFFF6FE08ED00E000127A0000000020DA
:1003B00000093D0004000020064880470648004729
:1003C000FEE7FEE7FEE7FEE7FEE7FEE7FEE7FEE705
:1003D000FEE7FEE7B9020008310100083149014398
:1003E000314A1160704770B5002100230F22C47894
:1003F0000CB32D4C246804F4E064C4F5E064210AD5
:10040000C1F10403CA40447804FA03F1847814402B
:1004100021430901254C0678A155047804F01F05F5
:100420000124AC4005786D114FF0E02606EB850500
:10043000C5F8004109E0047804F01F050124AC4030
:100440001B4D0678761145F8264070BD194A0A40C2
:100450000243154B1B1F1A60704739B1124A121D17
:1004600012680243104B1B1D1A6006E00E4A121D53
:10047000126882430C4B1B1D1A607047042808D178
:100480004FF0E021096941F004014FF0E0221161D1
:1004900007E04FF0E021096921F004014FF0E0226C
:1004A000116170470000FA050CED00E000E400E087
:1004B00080E100E080FFFF1F10B50446CA48844277
:1004C00008D10121042000F047FB0021042000F0A6
:1004D00043FB46E0C548844208D10121082000F0D2
:1004E0003BFB0021082000F037FB3AE0C048844283
:1004F00008D10121102000F02FFB0021102000F076
:100500002BFB2EE0BB48844208D10121202000F0C3
:1005100023FB0021202000F01FFB22E0B64884428C
:1005200008D10121402000F017FB0021402000F0FD
:1005300013FB16E0B148844208D10121802000F06D
:100540000BFB0021802000F007FB0AE0AC4884424E
:1005500007D10121801500F0FFFA0021A01500F05D
:10056000FBFA10BD10B50121084600F0F5FA002194
:10057000012000F0F1FA10BD2DE9F04102460025FE
:100580000026002000230024002791F803C00CF06F
:100590000F0591F803C01CF0100F03D091F802C0B2
:1005A0004CEA050591F800C0BCF1000F31D0146889
:1005B00000202BE04FF0010C0CFA00F3B1F800C062
:1005C0000CEA03069E4220D183004FF00F0C0CFA78
:1005D00003F7BC4305FA03FC4CEA040491F803C09A
:1005E000BCF1280F06D14FF0010C0CFA00FCC2F848
:1005F00014C00AE091F803C0BCF1480F05D14FF0D8
:10060000010C0CFA00FCC2F810C0401C0828D1D321
:100610001460B1F800C0BCF1FF0F34DD5468002055
:100620002EE000F1080C4FF0010808FA0CF3B1F8C5
:1006300000C00CEA03069E4221D183004FF00F0C4C
:100640000CFA03F7BC4305FA03FC4CEA040491F8E6
:1006500003C0BCF1280F05D100F1080C08FA0CF812
:10066000C2F8148091F803C0BCF1480F07D100F123
:10067000080C4FF0010808FA0CF8C2F81080401C72
:100680000828CED35460BDE8F0814FF6FF71018099
:10069000022181700421C1707047024600209368D6
:1006A0000B4201D0012000E000207047014688681D
:1006B00080B2704702460020D3680B4201D001206F
:1006C00000E0002070470146C86880B270470161B1
:1006D0007047416170470AB1016100E041617047B4
:1006E000C16070474FF480320A4382618161826148
:1006F00082698269704702460020424B18684FF6B3
:100700008073184040EA021008433E4B186070475F
:100710003D49C8617047F0B50A4600230024002116
:10072000002500F00046B6F1004F02D1354EF169C8
:1007300001E0344E7168C0F3034583B200F4401603
:10074000B6F5401F08D121F070612E4E766826F074
:1007500070662C4F7E6012E000F48016B6F5801FA4
:1007600006D1032606FA05F4A14341F0706106E0C4
:10077000460D360103FA06F6B14341F0706122B12D
:10078000460D360103FA06F6314300F00046B6F195
:10079000004F02D11B4EF16101E01A4E7160F0BDB5
:1007A00030B500228B071C0F0F2303FA04F2154B00
:1007B00008338C1053F824309343124C08348D10B6
:1007C00044F8253023468C1053F824308C07240F2E
:1007D00000FA04F423430B4C08348D1044F8253000
:1007E00030BD0A490860704700080140000C014014
:1007F000001001400014014000180140001C01409D
:10080000002001400000014000002042DC002042A6
:100810000E49086070470D49486070470B49886071
:1008200070474AF6AA200949086070474CF6CC4048
:1008300006490860704701460020044AD2680A420F
:1008400001D0012000E0002070470000003000408F
:10085000DD48006840F00100DB4908600846406858
:10086000DA490840D849486008460068D849084035
:10087000D54908600846006820F4802008600846D2
:10088000406820F4FE0048604FF41F008860704705
:10089000CD49096821F48031CB4A116011460968BD
:1008A00021F480211160B0F5803F03D0B0F5802F96
:1008B0000ED106E0C449096841F48031C24A116092
:1008C00007E0C149096841F4A021BF4A116000E076
:1008D00000BF00BF704710B5014600220023002072
:1008E0004A11012A02D1B84C236806E0022A02D13B
:1008F000B54C236A01E0B44C636A01F01F02012485
:1009000094401C4201D0012000E0002010BD38B509
:10091000002000900024002500BF3120FFF7DBFFFE
:1009200005460098401C00900098B0F5A06F01D0DB
:10093000002DF2D03120FFF7CEFF08B1012400E0F6
:100940000024204638BD014600209F4A106820F050
:10095000F80040EAC100106070479E490860704787
:1009600002460020984B586820F47C1042EA0103AC
:100970001843954B58607047964908667047014682
:100980000020914A506820F00300084350607047EF
:100990008D48406800F00C007047014600208A4AEC
:1009A000506820F0F0000843506070470146002076
:1009B000854A506820F4E060084350607047014663
:1009C0000020814A506820F4605040EAC100506025
:1009D000704729B17C4A527A02437B4B5A7204E039
:1009E000794A527A8243784B5A7270477A49086042
:1009F000704701460020744A506820F44040084384
:100A0000506070470021754A11706F4A82F82010BB
:100A1000012802D0042808D103E001216F4A117097
:100A200004E005216D4A117000E000BF00BF70476F
:100A30006B49086070476449096A0143624A116260
:100A40007047674944390860704730B5002100227B
:100A5000002400235C4D6D6805F00C0121B10429D0
:100A600005D0082923D105E05E4D056022E05D4DEB
:100A700005601FE0544D6D6805F47012524D6D68AD
:100A800005F48034022505EB92421CB9564D5543BE
:100A900005600BE04C4D6D6815F4003F03D0524DDE
:100AA0005543056002E04F4D5543056002E04D4D52
:100AB000056000BF00BF444D6D6805F0F0010909F5
:100AC0004A4D6B5C0568DD4045603F4D6D6805F43F
:100AD000E061090A454D6B5C4568DD4085603A4D33
:100AE0006D6805F46051C90A404D6B5C4568DD4096
:100AF000C560354D6D6805F44041890B3C4D6B5C1C
:100B0000C568B5FBF3F5056130BD29B12E4A5269C0
:100B100002432D4B5A6104E02B4A526982432A4B0F
:100B20005A61704729B1284A92690243264B9A615B
:100B300004E0254A92698243234B9A61704729B1A8
:100B4000214AD2690243204BDA6104E01E4AD2698D
:100B500082431D4BDA61704729B11B4AD2680243B8
:100B6000194BDA6004E0184AD2688243164BDA6007
:100B7000704729B1144A12690243134B1A6104E009
:100B8000114A12698243104B1A6170471449403967
:100B9000086070470F49C86470470B49C8717047B7
:100BA0000948406A40F08070074948627047014632
:100BB0000020054A92680A4201D0012000E000208E
:100BC0007047014988727047001002400000FFF82A
:100BD000FFFFF6FE00004242D800424220100240D1
:100BE0008004424200127A0000093D0014000020F7
:100BF0002400002010B50446BE48844208D10121DB
:100C00008014FFF7A9FF0021A014FFF7A5FF16E04D
:100C1000B948844208D101210014FFF7AAFF00213E
:100C20002014FFF7A6FF0AE0B448844207D101214F
:100C3000C013FFF79EFF0021E013FFF79AFF10BDDE
:100C400010B50022028802F441520B884C882343DD
:100C50008C882343CC8823430C8923434C8923432A
:100C60008C892343CC8923431A430280838B4FF220
:100C7000FF74234083830B8A038210BD2DE9F04F5C
:100C800085B005460C464FF0000902274FF00008DA
:100C90004FF0010B0026B246A88B4FF240010840EE
:100CA000A88302202884B5F81C90A068022801D1EE
:100CB00000BF38E0A08810B94FF0010B01E04FF001
:100CC000020B8D48854200D100E000BF6846FFF767
:100CD000BCFEDDF800A0E088B0F5007F0AD14FEA45
:100CE0001A2000EB80004000A168B0FBF1F0401D2D
:100CF00086B20BE04FEA4B10BAFBF0F000EB80003D
:100D00004000A168B0FBF1F0401D86B20A20B6FB9E
:100D1000F0F606F00108A6EB0800C0F34F074FF607
:100D2000FF7000EA0828022F01DBFF2F02DD0227F7
:100D30004FF00008E08840EA080038432884A08883
:100D4000A1890843618808432188084340F4006072
:100D500040EA0909A5F81C9005B0BDE8F08F002114
:100D6000018041808180C180018141818181C18177
:100D70000721018270470021018041808180C1806C
:100D80000221816000218181704721B1028842F0F7
:100D90004002028004E002884FF6BF731A400280CE
:100DA000704721B1828B42F48062828304E0828B9F
:100DB0004FF6FF331A408283704730B5002400237A
:100DC0000C110125A540ABB21AB185881D43858061
:100DD00002E085889D43858030BD1AB183880B432E
:100DE000838002E083888B438380704781817047D2
:100DF000014688897047A1F57E42FF3A04D00288F7
:100E000042F48072028004E002884FF6FF631A40C9
:100E10000280704721B1828842F00402828004E09F
:100E200082884FF6FB731A408280704702884FF227
:100E3000FF731A40028002880A43028070470188CB
:100E400041F480510180704721B1028842F4005280
:100E5000028004E002884DF6FF731A40028070475A
:100E600002460020012901D0108B00E0908A7047D3
:100E70000146088A7047B1F5804F04D1028842F4D8
:100E80008042028004E002884BF6FF731A40028021
:100E900070470246002013890B4201D0012000E078
:100EA00000207047CA4302817047F0B50246002017
:100EB00000240023002501F00F070126BE40B4B234
:100EC0000B1101269E40B3B2968806EA03051689E7
:100ED000264202D00DB1012000E00020F0BD10B587
:100EE000002201F00F040123A3409AB2D3430381EF
:100EF00010BD00000030014000380040003C0040C0
:100F000010B50446FE48844208D10121C014FFF701
:100F100023FE0021E014FFF71FFEC4E0B4F1804F70
:100F200008D101210846FFF724FE00210120FFF728
:100F300020FEB8E0F348844208D101210220FFF7E7
:100F400018FE00210220FFF714FEACE0EE488442B8
:100F500008D101210420FFF70CFE00210420FFF737
:100F600008FEA0E0E948844208D101210820FFF7EB
:100F700000FE00210820FFF7FCFD94E0E4488442D5
:100F800008D101211020FFF7F4FD00211020FFF708
:100F9000F0FD88E0DF48844208D101212020FFF7DE
:100FA000E8FD00212020FFF7E4FD7CE0DA488442E0
:100FB00008D101214014FFF7CFFD00216014FFF795
:100FC000CBFD70E0D548844209D10121C804FFF768
:100FD000C3FD00214FF40020FFF7BEFD63E0D048C1
:100FE000844209D101210805FFF7B6FD00214FF425
:100FF0008010FFF7B1FD56E0CA48844209D10121B3
:101000004805FFF7A9FD00214FF40010FFF7A4FDEC
:1010100049E0C548844208D101214020FFF7A9FDDD
:1010200000214020FFF7A5FD3DE0C048844208D1E3
:1010300001218020FFF79DFD00218020FFF799FD11
:1010400031E0BB48844208D101218015FFF791FDB2
:101050000021A015FFF78DFD25E0B648844209D197
:1010600001210804FFF778FD00214FF48030FFF7DD
:1010700073FD18E0B048844209D101214804FFF70C
:101080006BFD00214FF40030FFF766FD0BE0AB482D
:10109000844208D101218804FFF75EFD00214FF44E
:1010A0008020FFF759FD10BD00220288944B984222
:1010B0000ED0994B98420BD0B0F1804F08D0914B95
:1010C000984205D0904B984202D0904B984204D160
:1010D0004FF68F731A404B881A438D4B984207D0B6
:1010E0008C4B984204D04FF6FF431A40CB881A43EA
:1010F00002808B8883850B880385814B98420BD0B7
:10110000854B984208D08B4B984205D08A4B984229
:1011100002D08A4B984201D10B7A03860123838245
:10112000704770B5002400220023058C4FF6FE7630
:1011300035400584028C8388048B4FF68F752C40D4
:10114000B51E2C400D882C43751E2A400D892A435C
:101150004D882A436A4DA8420BD06F4DA84208D053
:10116000744DA84205D0744DA84202D0734DA842D8
:1011700013D14FF6F7752A404D892A434FF6FB7578
:101180002A408D882A434FF6FF652B404FF6FF55C6
:101190002B408D892B43CD892B4383800483CD88BD
:1011A0008586028470BD70B5002400220023058C62
:1011B0004FF6EF7635400584028C8388048B48F621
:1011C000FF752C404FF6FF452C400D884FF6FF76FB
:1011D00006EA05252C434FF6DF752A400D8906EAFD
:1011E00005152A434D8806EA05152A43444DA842B1
:1011F00002D0494DA8421DD14FF67F752A404D8936
:101200004FF6FF7606EA05152A434FF6BF752A40CA
:101210008D8806EA05152A434FF6FF352B404FF21D
:10122000FF752B408D8906EA85052B43CD8906EA9B
:1012300085052B4383800483CD880587028470BD98
:1012400070B5002400220023058C4FF6FF66354060
:101250000584028C8388848B4FF68F752C404FF663
:10126000FC752C400D882C434FF6FF552A400D8904
:101270004FF6FF7606EA05252A434D8806EA05253E
:101280002A431F4DA84202D0234DA8421DD14FF240
:10129000FF752A404D894FF6FF7606EA05252A4359
:1012A0004FF6FF352A408D8806EA05252A434EF67B
:1012B000FF752B404DF6FF752B408D8906EA05150D
:1012C0002B43CD8906EA05152B4383808483CD8883
:1012D0008587028470BD70B5002200230024058C30
:1012E0004EF6FF7635400584038C8488828B48F661
:1012F000FF752A404FF6FF452A400D8820E0000088
:10130000002C01400004004000080040000C004098
:10131000001000400014004000340140004C014027
:10132000005001400054014000180040001C0040E3
:1013300000200040004001400044014000480140BE
:101340004FF6FF7606EA05252A434DF6FF752B403A
:101350000D8906EA05352B434D8806EA05352B43F2
:10136000FA4DA84202D0FA4DA84208D14BF6FF75BB
:101370002C408D894FF6FF7606EA85152C43848034
:101380008283CD88A0F84050038470BD828B4FF2D9
:10139000FF331A408283828B4FF6FF7303EA0123E7
:1013A0001A4382837047F0B50C461546002200218F
:1013B0000026078C4EF6FF7C07EA0C070784828B19
:1013C000018C4FF6FF7707EA043640F6FF473A40B4
:1013D0004FF6FF7707EA05273A434FF6FF7707EA0C
:1013E00003373A43D94FB8420ED0D94FB8420BD049
:1013F000B0F1804F08D0D74FB84205D0D64FB84291
:1014000002D0D64FB84206D14DF6FF77394046F4A8
:101410008057394305E047F6FF57394044F4805779
:10142000394382830184F0BD828B4FF6F3731A40F7
:101430008283828B0A4382837047F0B50C4615463F
:10144000002200210026078C4FF6FF6C07EA0C07EC
:101450000784828B018C4FF6FF7707EA04264FF64C
:101460000C773A404FF6FF7707EA03172F433A43CA
:10147000B64FB8420ED0B64FB8420BD0B0F1804F45
:1014800008D0B44FB84205D0B34FB84202D0B34FE2
:10149000B84206D14FF6FF57394046F480773943BA
:1014A00005E04FF2FF57394044F480773943828397
:1014B0000184F0BD028B4FF2FF331A400283028B8E
:1014C0004FF6FF7303EA01231A4302837047F0B516
:1014D0000C461546002200210026078C4FF6EF7CB3
:1014E00007EA0C070784028B018C4FF6FF7707EAA7
:1014F000041640F6FF473A404FF6FF7707EA0337F6
:101500003A434FF6FF7707EA05273A438F4FB84231
:101510000ED08F4FB8420BD0B0F1804F08D08D4F16
:10152000B84205D08C4FB84202D08C4FB84206D199
:101530004FF6DF77394046F01007394305E04FF6A4
:101540005F77394044F01007394302830184F0BDCE
:10155000028B4FF6F3731A400283028B0A43028315
:101560007047F0B50C46154600220021068C4FF658
:10157000FE773E400684028B018C4FF60C7632409B
:101580007E1C06EA03162E433243704EB0420ED044
:101590006F4EB0420BD0B0F1804F08D06D4EB042CC
:1015A00005D06D4EB04202D06C4EB04206D14FF61F
:1015B000FD76314044F00106314305E04FF6F57603
:1015C000314044F00106314302830184F0BD70B51F
:1015D00005460C465D4885420ED05D4885420BD0DD
:1015E000B5F1804F08D05B48854205D05A48854206
:1015F00002D05A48854200D100E000BF208850B98F
:101600002389A28861882846FFF7ABFFE188284636
:10161000FFF79EFF25E0208804280AD12389A288AD
:1016200061882846FFF753FFE1882846FFF742FF0D
:1016300017E0208808280AD12389A28861882846D3
:10164000FFF7FBFEE1882846FFF7EEFE09E023895D
:10165000A28861882846FFF7A6FEE1882846FFF7A2
:1016600095FE70BD2DE9F04105460C460026012788
:10167000608808B9022600E00026A088012801D170
:10168000022700E001272088A0B92389A288618869
:101690002846FFF766FFE1882846FFF759FF2389B0
:1016A0003A4631462846FFF712FFE1882846FFF701
:1016B00001FF13E02389A28861882846FFF707FF0E
:1016C000E1882846FFF7F6FE23893A463146284648
:1016D000FFF747FFE1882846FFF73AFFBDE8F081B2
:1016E0000A884B881A438B881A43CB881A430B8984
:1016F0001A434B891A438B891A43A0F84420704738
:101700004FF6FF71818000210180C180418001720C
:1017100070470021018041808180C1800181418129
:101720008181C18170470021018041800121818038
:101730000021C180018170470021018041808180AA
:10174000C18001814181818170470000002C0140EE
:10175000003401400004004000080040000C00403C
:1017600021B1028842F00102028004E002884FF6B3
:10177000FE731A400280704731B1B0F8442042F441
:101780000042A0F8442005E0B0F84420C2F30E0265
:10179000A0F8442070471AB183890B43838102E08B
:1017A00083898B43838170478182704741EA0203BA
:1017B000A0F8483070471AB183890B43838102E057
:1017C00083898B438381704701894FF6F8721140FA
:1017D000018170470A46002101894FF68F73194035
:1017E00011430181704730B504460D462946204615
:1017F000FFF7F0FF208940F00700208130BD2DE980
:10180000F04104460D4616461F46602D06D13B4664
:10181000012231462046FFF75AFE05E03B460122F1
:1018200031462046FFF79DFE29462046FFF7D2FFAE
:10183000208940F007002081BDE8F08130B50C46DA
:1018400000210189C9B24FF6FF7505EA032515434A
:1018500025432943018130BD2DE9F04105460E465F
:1018600017469846002443463A4631462846FFF735
:10187000E5FF2C894FF6F870044044F007044FF65A
:101880008F70044044F070042C81BDE8F081F0B505
:1018900004460D4616461F463B463246294620461C
:1018A000FFF7CCFF208940F480402081F0BD018506
:1018B000828270470A46002101884FF68F731940D3
:1018C000114301807047F0B50C4615461E460021B5
:1018D000002200230189028B038C4FF6F8773940F0
:1018E00021434FF6FC473A4040F201173A434FF686
:1018F000DD773B404FF6FF7707EA06172F433B4360
:10190000018102830384F0BD0A460021018B4FF65A
:101910008F7319401143018370470A460021018BE0
:1019200048F6FF7319404FF6FF7303EA0223194389
:10193000018370470A460021818B4FF68F7319404F
:101940001143818370470A460021818B48F6FF735B
:1019500019404FF6FF7303EA02231943818370474E
:1019600021B1028842F08002028004E002884FF632
:101970007F731A400280704721B1828842F00402CE
:10198000828004E082884FF6FB731A4082807047A1
:1019900021B1828842F00802828004E082884FF6FA
:1019A000F7731A408280704721B1828842F00102A9
:1019B000828004E082884FF6FE731A40828070476E
:1019C0000A460021018B4FF6F7731940114301833A
:1019D00070470A460021018B4FF2FF7319404FF602
:1019E000FF7303EA02231943018370470A4600216B
:1019F000818B4FF6F77319401143818370470A4674
:101A00000021818B4FF2FF7319404FF6FF7303EAF9
:101A100002231943818370470A460021018B4FF648
:101A2000FB7319401143018370470A460021018B63
:101A30004FF6FF3319404FF6FF7303EA02231943B1
:101A4000018370470A460021818B4FF6FB731940D2
:101A50001143818370470A460021818B4FF6FF3383
:101A600019404FF6FF7303EA02231943818370473D
:101A70000A460021018B4FF67F7319401143018301
:101A800070470A460021018BC1F30E014FF6FF7328
:101A900003EA02231943018370470A460021818B20
:101AA0004FF67F7319401143818370470A46002126
:101AB000818BC1F30E014FF6FF7303EA0223194332
:101AC000818370470A460021018C4FF6FD7319404F
:101AD0001143018470470A460021018C4FF6F773C9
:101AE00019401143018470470A460021018C4FF6CA
:101AF000DF7319404FF6FF7303EA021319430184A1
:101B000070470A460021018C4FF67F7319404FF64B
:101B1000FF7303EA02131943018470470A46002148
:101B2000018C4FF6FF5319404FF6FF7303EA02236F
:101B30001943018470470A460021018C4FF2FF735C
:101B400019404FF6FF7303EA0223194301847047DB
:101B50000A460021018C4DF6FF7319404FF6FF73C2
:101B600003EA023319430184704730B5002301248E
:101B70008C40A3B2048C9C430484048C02FA01F5CB
:101B8000ADB22C43048430BD30B5002304248C4016
:101B9000A3B2048C9C430484048C02FA01F5ADB218
:101BA0002C43048430BD70B5034600200024184641
:101BB000183001258D40ACB21D8CA5431D8409B1A0
:101BC000082909D100EB6100056825F07005056062
:101BD0000568154305600EE00D1FC5F34E0528444A
:101BE000056825F4E045056005684FF6FF7606EACE
:101BF00002263543056070BD21B1028842F0020221
:101C0000028004E002884FF6FD731A40028070479C
:101C100021B1028842F00402028004E002884FF6FB
:101C2000FB731A400280704721B1828842F0800223
:101C3000828004E082884FF67F731A40828070476A
:101C400002884FF6F7731A40028002880A43028026
:101C5000704782884FF68F731A40828082880A43C9
:101C60008280704702894FF6F8731A400281028918
:101C70000A430281704702894FF67F731A4002813E
:101C800002890A43028170478184704781857047C9
:101C9000818670470187704781877047A0F84010A0
:101CA000704702884FF6FF431A40028002880A43B9
:101CB000028070470146888E70470146088F704742
:101CC0000146888F70470146B1F8400070470146D1
:101CD000888C70470146088D704702460020138AA1
:101CE0000B4201D0012000E000207047CA4302826D
:101CF000704730B50246002000230024158A05EA0B
:101D00000103958905EA010413B10CB1012000E03B
:101D1000002030BDCA4302827047000010B504465F
:101D2000FB48844209D101218803FEF715FF0021F9
:101D30004FF48040FEF710FF32E0F648844209D1AC
:101D400001214804FEF715FF00214FF40030FEF793
:101D500010FF25E0F048844209D101218804FEF7F4
:101D600008FF00214FF48020FEF703FF18E0EB4846
:101D7000844209D10121C804FEF7FBFE00214FF483
:101D80000020FEF7F6FE0BE0E548844208D1012171
:101D90000805FEF7EEFE00214FF48010FEF7E9FE85
:101DA00010BD2DE9F04786B005460E460024A24638
:101DB00000BFA1460027B08900B100BF2F462C8A82
:101DC0004CF6FF700440F08804432C82AC894EF638
:101DD000F3100440B08831890843718908430443F3
:101DE000AC81AC8A4FF6FF400440B0890443AC821A
:101DF00001A8FEF72AFEC648874202D1DDF810A0EE
:101E000001E0DDF80CA0A88910F4004F08D00AEB1F
:101E1000CA0000EB0A1031684900B0FBF1F807E096
:101E20000AEBCA0000EB0A1031688900B0FBF1F838
:101E30006420B8FBF0F004012009642101FB108943
:101E4000A88910F4004F08D0322000EBC900B0FB85
:101E5000F1F000F00700044308E0322000EB091025
:101E60006421B0FBF1F000F00F0004432C8106B0B8
:101E7000BDE8F0874FF41651016000218180C180D8
:101E800001810C21418100218181704710B50246FA
:101E90000020108A4FF2FF0318400B884C88234320
:101EA0008C882343CC8823431843108210BD002123
:101EB000018041808180C180704721B1828942F4D4
:101EC0000052828104E082894DF6FF731A408281BC
:101ED0007047F0B503460024002600250020A1F538
:101EE00010676A3F00D100BF1846C1F3421401F0E9
:101EF0001F06012707FA06F5012C01D10C3004E07A
:101F0000022C01D1103000E014301AB107682F43C1
:101F1000076002E00768AF430760F0BD1AB1838A2B
:101F20000B43838202E0838A8B4383827047028A59
:101F30004FF6F0731A400282028A0A430282704707
:101F400082894FF2FF731A40828182890A4382811B
:101F5000704721B1828942F00202828104E08289C5
:101F60004FF6FD731A4082817047028A4FF6DF7385
:101F70001A400282028A0A430282704721B1028A11
:101F800042F48042028204E0028A4BF6FF731A4058
:101F900002827047C1F30802828070470146888838
:101FA000C0F308007047818941F0010181817047C9
:101FB000028BD2B20283028B42EA01220283704773
:101FC000028B02F47F420283028B0A430283704732
:101FD00021B1828A42F02002828204E0828A4FF696
:101FE000DF731A408282704721B1828A42F0100268
:101FF000828204E0828A4FF6EF731A408282704731
:1020000021B1828A42F00802828204E0828A4FF67D
:10201000F7731A408282704721B1828942F40042EC
:10202000828103E08289C2F30E028281704721B16E
:10203000828A42F40062828204E0828A4FF2FF7355
:102040001A4082827047828A4FF6FB731A4082825E
:10205000828A0A438282704721B1828A42F0020258
:10206000828204E0828A4FF6FD731A4082827047B2
:1020700002460020B1F5007F00D100BF13880B425B
:1020800001D0012000E00020704701F40072B2F599
:10209000007F00D100BFCA430280704770B502467E
:1020A0000024002300250020A1F510666A3E00D11F
:1020B00000BFC1F3421501F01F03012606FA03F326
:1020C000012D02D19689334006E0022D02D1168AF5
:1020D000334001E0968A33400C12012606FA04F4DC
:1020E0001688344013B10CB1012000E0002070BD0F
:1020F00010B500220023A1F510646A3C00D100BF96
:102100000A1201249440A3B2DC43048010BD0000F5
:10211000003801400044004000480040004C0040AE
:102120000050004000BFBF2080F31188BFF34F8FE5
:10213000BFF36F8F00BF00BFFEE7001F4FF080733B
:102140000360001F21F001030360001F2D4B03609B
:10215000143802602038704700204FF0E0210861F9
:1021600088614AF6DF30486107200861704710B582
:102170002548006840F47F0023490860084600684D
:1021800040F07F400860FFF7E7FF00201F4908602C
:10219000FDF7EAFF002010BD704700BFBF2080F3AD
:1021A0001188BFF34F8FBFF36F8F00BF17480068D0
:1021B000401C16490860704714480068401E1349C7
:1021C00008600846006820B9002080F3118800BF2D
:1021D00000BF704710B500BFBF2080F31188BFF368
:1021E0004F8FBFF36F8F00BF00F042FA20B14FF066
:1021F000805005491C39086000BF002080F3118819
:1022000000BF10BD2521000820ED00E028000020BF
:10221000434A22F00700434A10600022414B5A60B3
:1022200043F6F872404B5A6000221A60014643F6AA
:10223000F8724A601A460A6070472DE9F041044678
:102240004FF0000800F05DFB3848006820B9FFF748
:10225000DFFF01203549086044B1083414F0070F4E
:1022600004D004F00700C0F108000444002C32D070
:1022700043F6F87084422ED22A4F3846056801E0B2
:102280002F462D686868A04202D228680028F7D13E
:10229000254885421FD0386800F108082868386052
:1022A0006868001B102810D92E196868001B706020
:1022B0006C6071681B4800E00068026852688A42DE
:1022C000FAD302683260066000BF1949686809687D
:1022D000081A1749086000F049FA4046BDE8F08145
:1022E00070B506463546B6B1083D2C4600F009FBF0
:1022F00061680C4800E00068026852688A42FAD3BC
:102300000268226004600A49606809680844084954
:10231000086000F02BFA70BD0548006870477047F0
:10232000DC000020340000203C00002030000020B1
:102330002C00002000F1080141604FF0FF31816066
:1023400000F10801C16001610021016070470021B6
:102350000161704742684A6093688B609368596076
:102360009160086103685B1C0360704710B502460A
:102370000B685C1C01D1106907E002F1080000E065
:102380004068446824689C42FAD944684C604C68B0
:10239000A160886041600A611468641C146010BD0B
:1023A00001460A69D1E901309860D1E9010358601A
:1023B0005068884201D18868506000200861106828
:1023C000401E10601068704710B5002407E004EB51
:1023D0008401FE4A02EB8100FFF7ACFF641C082C6D
:1023E000F5D3FB48FFF7A6FFFA48FFF7A3FFFA482B
:1023F000FFF7A0FFF948FFF79DFFF948FFF79AFFA5
:10240000F348F8490860F348F749086010BD10B573
:102410000446FFF7C2FEF5480068401CF349086017
:10242000F348006840B9F248046008460068012893
:102430000DD1FFF7C9FF0AE0EE48006838B9EC4853
:102440000068C06AE16A884201D8E9480460EA4845
:102450000068401CE849086094F82C10012088406E
:10246000E64909680843E5490860E16A01EB810132
:10247000D64A02EB8100211DFFF76CFFFFF79CFE9F
:10248000DC48006868B1DA480068C06AE16A8842DE
:1024900007D24FF08050DA490860BFF34F8FBFF387
:1024A0006F8F10BD2DE9FF5F80460E469146DDE936
:1024B0000E7A109CA9F10100216B01EB800B2BF02F
:1024C000070B86B1002507E0715D04F1340041552A
:1024D000705D00B902E06D1C102DF5D300BF002126
:1024E0004320015502E0002084F83400082F00D377
:1024F0000727E762201DFFF72AFF04F11800FFF706
:1025000026FF2461C7F10800A061646200206064B6
:1025100084F8480041465846039AFFF70EFE2060B3
:10252000BAF1000F01D0CAF80040BDE8FF9F2DE9C5
:10253000FF4F85B0804689461746DDE912ABB800EB
:10254000FFF77BFE064656B14C20FFF776FE0446A9
:102550000CB1266304E03046FFF7C2FE00E0002421
:102560007CB10020CDE900ABCDE902403A464946B6
:102570004046089BFFF796FF2046FFF748FF0125DE
:1025800001E04FF0FF35284609B0BDE8F08F9549CE
:102590000968096809B9012100E0002121B14FF063
:1025A000FF31984A116006E08E490968C968C86819
:1025B000944A41681160704710B50446206BFFF7DC
:1025C0008FFE2046FFF78CFE10BD70B50546FFF765
:1025D000E4FD15B98648006800E028460446201D41
:1025E000FFF7DEFE78B9E06A00EB8000774951F82A
:1025F000200040B994F82C10012088407F490968D8
:1026000081437E480160A06A18B104F11800FFF709
:10261000C7FE79480068401C774908607448006824
:10262000844209D1211D6D48FFF794FE7648006869
:10263000401C7549086009E06C480068401E6B4901
:1026400008602046FFF7B8FFFFF7A1FFFFF7B4FDD2
:102650006848006858B166480068844207D14FF066
:10266000805067490860BFF34F8FBFF36F8F70BD15
:102670002DE9F041002765480068002868D16448CA
:102680000068451C624805608DB95648D0F8008046
:1026900055480068534908605348C0F800805D48B9
:1026A0000068401C5B490860FFF771FF00BF554898
:1026B000006885423BD300BF4A480068006808B9FB
:1026C000012000E0002020B14FF0FF304D490860AC
:1026D0002CE044480068C068C4686668B54202D20D
:1026E0004848066022E0201DFFF75AFEA06A18B194
:1026F00004F11800FFF754FE94F82C1001208840D4
:102700003E49096808433D490860E16A01EB8101DF
:102710002E4A02EB8100211DFFF71CFE3449E06ABE
:102720000968C96A8842C7D30127C5E700BF304896
:102730000068C06A00EB8000244951F8200001289D
:1027400000D901273448006808B901F01FFB06E0F2
:1027500031480068401C3049086001F017FB2F48E1
:10276000006800B101273846BDE8F08170B500244B
:102770000026FFF712FD25480068401E2349086027
:102780000846006800287AD118480068002876D0EA
:102790004FE01148C068C46804F11800FFF700FE5C
:1027A000201DFFF7FDFD94F82C10012088401349EF
:1027B0000968084311490860E16A01EB8101034A95
:1027C00002EB8100211DFFF7C5FD29E0D440002068
:1027D00074410020884100209C410020B04100202D
:1027E000C4410020780000207C0000204C00002024
:1027F0004400002058000020680000205400002001
:1028000004ED00E06C00002048000020740000206F
:1028100050000020640000205C00002060000020C8
:10282000F849E06A0968C96A884202D30120F6497A
:102830000860F648006808B9012000E00020002880
:10284000A7D00CB1FFF7A3FEF148056865B100BF42
:10285000FFF70EFF10B10120EB4908606D1E002D3F
:10286000F6D10020EA490860E748006838B101263F
:102870003007E8490860BFF34F8FBFF36F8FFFF752
:102880009BFC304670BD2DE9F04105460E46E248FE
:102890000768DC480068001DFFF782FD50B9D94881
:1028A000006890F82C1001208840DC4909688143B9
:1028B000DA480160681C07D136B1D2480168091DA9
:1028C000D748FFF747FD1AE07C19CE4800684460FE
:1028D000BC4207D2CB480168091DD2480068FFF707
:1028E00045FD0CE0C7480168091DCF480068FFF7A7
:1028F0003DFDCE480068844201D2CC480460BDE86A
:10290000F081CB480068401CC949086070472DE938
:10291000F047044688464FF00009FFF7F2FFBE4833
:102920000668206800EB08052068B04207D92068D7
:10293000A8420BD9B54209D94FF0010906E0206839
:10294000A84201D8B54201D94FF001092560B9F17B
:10295000000F03D0A81B0021FFF795FFFFF706FF2C
:1029600007463FB94FF08050AA490860BFF34F8F28
:10297000BFF36F8FBDE8F08770B50446002544B102
:10298000FFF7BFFF00212046FFF77DFFFFF7EEFEB8
:1029900005463DB94FF080509E490860BFF34F8F08
:1029A000BFF36F8F70BD70B50446FFF7F6FB14B927
:1029B0009448006800E020460646F56AFFF7FCFBF5
:1029C000284670BD70B5024600BFBF25EFF31184E5
:1029D00085F31188BFF34F8FBFF36F8F00BF214680
:1029E00012B9884C246800E014462346D86A00BF18
:1029F00081F3118800BF70BD2DE9F04780460D4678
:102A00004FF00009082D00D30725FFF7C6FBB8F1EA
:102A1000000F02D17B48006800E040460446E66AA9
:102A2000AE4251D0B5420BD97648006884420DD0F1
:102A300074480068C06AA84208D84FF0010905E050
:102A400070480068844201D14FF00109E76AE562ED
:102A5000A06910F0004F02D1C5F10800A06107EB9A
:102A60008701744A02EB81016069884201D101202B
:102A700000E00020E0B1201DFFF792FC30B90120FA
:102A8000B8406649096881436448016094F82C1095
:102A90000120884061490968084360490860E16A8B
:102AA00001EB8101634A02EB8100211DFFF752FC1B
:102AB000B9F1000F07D04FF0805056490860BFF3BE
:102AC0004F8FBFF36F8F00BFFFF776FBBDE8F08736
:102AD0005748006818B101204B4908601DE00020EC
:102AE000494908604D480068B0FA80F0C0F11F0104
:102AF00001EB81024F4B03EB820042685268426057
:102B000000F108024368934202D142685268426071
:102B10004268D2683B4B1A6000BF704770B50546EB
:102B2000FFF73BFB15B93748006800E0284604462C
:102B3000201DFFF735FC78B9E06A00EB80003D49C5
:102B400051F8200040B994F82C10012088403349F6
:102B50000968814331480160A06A18B104F1180086
:102B6000FFF71EFC211D2E48FFF7F4FB94F84800E8
:102B7000012802D1002084F84800FFF71DFB2E48F1
:102B8000006828B1FFF709FBFFF701FDFFF714FB11
:102B90001C480068844217D12748006840B14FF0B4
:102BA00080501C490860BFF34F8FBFF36F8F0BE05D
:102BB0001B48006821490968884203D10020114957
:102BC000086001E0FFF784FF70BD10B501460020EA
:102BD0000A46134C5369A34201D1012300E00023AC
:102BE00073B10A4C936AA34201D1012300E0002390
:102BF00033B9936A0BB9012300E0002303B101202C
:102C000010BD000044000020600000209C41002016
:102C10005C00002004ED00E0500000205400002083
:102C2000C44100207C000020780000206C000020BF
:102C300074000020D4400020580000204C000020E8
:102C400070B505462C46FE48006884422BD054B32C
:102C5000FFF7A3FA2046FFF7B8FF10B3201DFFF7D8
:102C60009FFB94F82C1001208840F649096808431E
:102C7000F4490860E16A01EB8101F34A02EB81004B
:102C8000211DFFF767FBEE49E06A0968C96A8842BF
:102C900007D34FF08050ED490860BFF34F8FBFF36B
:102CA0006F8FFFF789FA70BD2DE9F04106460027C6
:102CB000344600BFBF21EFF3118081F31188BFF3C9
:102CC0004F8FBFF36F8F00BF05462046FFF77DFF94
:102CD00020B3DF480068E0B9D949E06A0968C96AE9
:102CE000884200D30127201DFFF75AFB94F82C10CF
:102CF00001208840D34909680843D2490860E16A45
:102D000001EB8101D04A02EB8100211DFFF722FB7C
:102D100004E004F11801CF48FFF71CFB00BF85F366
:102D2000118800BF3846BDE8F08110B516E0FFF706
:102D300034FAC948C068C468201DFFF731FBC74892
:102D40000068401EC5490860C5480068401EC44967
:102D50000860FFF731FA2046FFF72EFCC0480068F4
:102D60000028E4D110BD00BFFFF7DFFFB6480068C0
:102D70000128F9D94FF08050B4490860BFF34F8F54
:102D8000BFF36F8FF0E71CB5B64800210B468022D9
:102D9000CDE90010B4A1B648FFF7C9FB0446012CE9
:102DA00014D100BFBF2080F31188BFF34F8FBFF352
:102DB0006F8F00BF4FF0FF30AE4908600120AE4971
:102DC00008600020AD490860FFF7D1F91CBD10B5BF
:102DD00000BFBF2080F31188BFF34F8FBFF36F8F09
:102DE00000BF0020A4490860FFF7D6F910BDA34931
:102DF000086870470021A14A10687047974800682A
:102E00007047014611B98E48006800E00846024646
:102E100002F13400704770B505460C4688480168D9
:102E200018312846FFF7A2FA01212046FFF72BFDB3
:102E300070BD70B506460C46154644F0004080490A
:102E4000096888617E48016818313046FFF782FAC8
:102E500001212846FFF717FD70BD70B50646F068E2
:102E6000C46804F11800FFF79BFA79480068A8B914
:102E7000201DFFF795FA94F82C1001208840714925
:102E8000096808436F490860E16A01EB81016E4AF5
:102E900002EB8100211DFFF75DFA04E004F1180147
:102EA0006C48FFF757FA6649E06A0968C96A8842C0
:102EB00004D9012501207249086000E00025284658
:102EC00070BD70B505460E4646F000402860EC68BF
:102ED0002846FFF765FA201DFFF762FA94F82C10D8
:102EE0000120884057490968084356490860E16A4B
:102EF00001EB8101544A02EB8100211DFFF72AFA00
:102F00004F49E06A0968C96A884202D901205C49D0
:102F1000086070BD10B50446FFF73FF959480068D6
:102F20002060564800686060FFF746F910BD5549BB
:102F300009680160514909684160704770B50646EB
:102F40000C46FFF72AF94D4802687068131A20688A
:102F5000401C01D1002517E04A49306809688842C1
:102F600004D07068904201D801250DE02068984295
:102F700007D92068C01A20603046FFF7D8FF002527
:102F800002E0002020600125FFF716F9284670BDF9
:102F900001203B4908607047294909688869284928
:102FA0000968C96AC1F10801254A12689161704730
:102FB00070B506460D46FFF7F0F821480068406CF2
:102FC00088B901201E49096881F848005DB10121D6
:102FD0002846FFF758FC4FF080501C490860BFF3AB
:102FE0004F8FBFF36F8FFFF7E7F8FFF7D6F814485E
:102FF0000068446C4CB126B100201149096848644E
:1030000003E0601E0E490968486400200C49096805
:1030100081F84800FFF7D0F8204670BD2DE9F04157
:103020000746884614461D46FFF7B7F8044800686F
:1030300090F8480002283ED00149096824E00000C9
:103040004400002054000020D440002004ED00E0A3
:10305000740000209C410020B04100204C00002062
:10306000480000207000002049444C45000000004A
:10307000672D00086C000020580000205000002040
:10308000600000206400002001F14400496CB94355
:1030900001600120B249096881F848005DB1012151
:1030A0002846FFF7F0FB4FF08050AE490860BFF3B1
:1030B0004F8FBFF36F8FFFF77FF8FFF76EF81CB1EC
:1030C000A7480068406C2060A548006890F8480058
:1030D000022801D0002608E0A149096801F1440056
:1030E000496C21EA08010160012600209C49096819
:1030F00081F84800FFF760F83046BDE8F0812DE91F
:10310000F04781460D4616461F464FF0010A4C46D1
:10311000FFF743F80FB1606C386094F848800220E4
:1031200084F84800052E17D2DFE806F01503070BD8
:103130000D00606C284360640FE0606C401C6064AC
:103140000BE0656409E0B8F1020F01D0656401E0AD
:103150004FF0000A01E000E000BF00BFB8F1010F2E
:1031600022D1201DFFF71CF994F82C100120884073
:103170007D49096808437C490860E16A01EB8101E7
:103180007A4A02EB8100211DFFF7E4F87449E06AF6
:103190000968C96A884207D94FF0805071490860B0
:1031A000BFF34F8FBFF36F8FFFF706F85046BDE8B0
:1031B000F0872DE9F84F83460D4616461F46DDF889
:1031C00028A0012000905C4600BFBF21EFF31180D2
:1031D00081F31188BFF34F8FBFF36F8F00BF81461C
:1031E0000FB1606C386094F84880022084F8480081
:1031F000052E17D2DFE806F01503070B0D00606CF3
:10320000284360640FE0606C401C60640BE0656400
:1032100009E0B8F1020F01D0656401E000200090E0
:1032200001E000E000BF00BFB8F1010F2CD1504811
:103230000068A8B9201DFFF7B3F894F82C100120FE
:10324000884049490968084347490860E16A01EB39
:103250008101464A02EB8100211DFFF77BF804E063
:1032600004F118014348FFF775F83D49E06A096821
:10327000C96A884208D9BAF1000F02D00120CAF801
:10328000000001203C49086000BF89F3118800BF9D
:103290000098BDE8F88F2DE9F04105460E462C4612
:1032A00000BFBF21EFF3118081F31188BFF34F8F6F
:1032B000BFF36F8F00BF074694F84880022084F860
:1032C0004800606C401C6064B8F1010F29D12848A7
:1032D0000068A8B9201DFFF763F894F82C100120AE
:1032E00088402149096808431F490860E16A01EBE9
:1032F00081011E4A02EB8100211DFFF72BF804E03B
:1033000004F118011B48FFF725F81549E06A096820
:10331000C96A884205D90EB10120306001201649E2
:10332000086000BF87F3118800BFBDE8F08170B569
:10333000054615B90A48006800E028460646FEF72B
:103340002CFF96F84800022804D1002086F8480097
:10335000012400E00024FEF72FFF204670BD00008E
:103360004400002004ED00E054000020D440002080
:10337000740000209C410020600000200146F74AB4
:1033800012688A4203D3F54A1268501A04E0F44ADC
:10339000521AF24B1B68D0187047F048006870470B
:1033A00070B505460E46ED48A0F80C51002405E026
:1033B000315DEA480C300155601C84B2AC42F7DB49
:1033C000012240F22661E748FEF783FD70BD70B52B
:1033D00004460D4616465521E04880F88C10AA2177
:1033E00080F88D1080F88E4080F88F5080F89060C3
:1033F00090F88E1090F88F004840D84991F89010BE
:103400004140D64880F8911000F18C010620FFF76A
:10341000C7FF70BD0121D14880F81011002180F84C
:103420001111A0F81211704700B50246CB48B0F850
:10343000160108B9FFF7EEFFC84890F8100100F038
:103440000F000B2873D2DFE800F0720615243E58F7
:10345000738DA7C1DA00552A07D10221BF4880F831
:1034600010110A21A0F8161103E00021BB48A0F8B2
:103470001611F3E0AA2A07D10321B84880F81011E9
:103480000A21A0F8161103E00021B448A0F8161193
:10349000E4E00421B14880F810110A21A0F81611C7
:1034A000B0F81211B0F81201401C83B2AB48A0F87A
:1034B00012314C3042544C3890F811015040A74919
:1034C00081F81101CAE00521A44880F810110A21F1
:1034D000A0F81611B0F81211B0F81201401C83B216
:1034E0009E48A0F812314C3042544C3890F81101EB
:1034F00050409A4981F81101B0E00621974880F8C0
:1035000010110A21A0F81611B0F81211B0F812012A
:10351000401C83B29148A0F812314C3042544C38D0
:1035200090F8110150408D4981F8110196E094E026
:1035300007218A4880F810110A21A0F81611B0F866
:103540001211B0F81201401C83B28448A0F8123165
:103550004C3042544C3890F8110150407F4981F86A
:1035600011017BE008217D4880F810110A21A0F8A4
:103570001611B0F81211B0F81201401C83B277484E
:10358000A0F812314C3042544C3890F811015040A0
:10359000724981F8110161E00921704880F8101129
:1035A0000A21A0F81611B0F81211B0F81201401C4F
:1035B00083B26A48A0F812314C3042544C3890F82B
:1035C00011015040654981F8110147E00A21634823
:1035D00080F81011A0F81611B0F81211B0F812010D
:1035E000401C83B25D48A0F812314C3042544C3834
:1035F00090F811015040594981F811012EE05748C7
:1036000090F81101904223D100215448A0F81411E0
:1036100011E05248B0F814114C30415C4C38B0F80D
:103620001431CC30C154CC38B0F81401401C81B2F4
:103630004A48A0F814114948B0F814010728E8DBFB
:103640000121464880F818110021A0F8161103E066
:1036500000214248A0F8161100E000BF00BF00BDE5
:1036600008B541A000F086FCFFF797FE3B49486093
:10367000FFF793FE39498860012200210846FFF7D1
:10368000A6FE53E035498868FFF778FEB0F5FA7F6B
:1036900008D9012200210846FFF799FEFFF77DFEB9
:1036A0002E49886000212D4880F8181132A04EF66E
:1036B0007D73002232210090142001F038FC30A0EC
:1036C0004EF67D73002232210090542001F02FFC31
:1036D0002CA04EF67D73002232210090A62001F02E
:1036E00026FC29A04EF67D73002250210090142064
:1036F00001F01DFC22A04EF67D73002250210090A7
:10370000542001F014FC1FA04EF67D7300225021BE
:103710000090A62001F00BFC104890F81F0120F04B
:103720000100401C0D4981F81F0100E0AAE700BF1D
:1037300008BD01460A2935D2DFE801F00507090B6B
:103740000D2A2C2E303230202DE031202BE032207B
:1037500029E0332027E0342025E00000D841002074
:10376000005C260500380140BAF3D7E9BACFD7E9A3
:10377000BCFEB9A4D7B00000BAF3CFC2CAD33A0096
:10378000D4B63A00BDFC3A00C7B0CFC2CAD33A00A3
:10379000352008E0362006E0372004E0382002E03B
:1037A000392000E000BF00BF704770B504460D46E9
:1037B0002A460A2092FBF0F100FB112086B2304627
:1037C000FFF7B7FF20710A2092FBF0F082B20A20C7
:1037D00092FBF0F100FB112086B23046FFF7A9FF03
:1037E000E0700A2092FBF0F082B20A2092FBF0F126
:1037F00000FB112086B23046FFF79BFFA0700A2025
:1038000092FBF0F082B20A2092FBF0F100FB112053
:1038100086B23046FFF78DFF60700A2092FBF0F011
:1038200082B20A2092FBF0F100FB112086B23046F2
:10383000FFF77FFF207070BD704700BFFFF7ADFD41
:103840000546FCF7EEFFFFF7F7FF2846FFF796FD6A
:10385000322806D22846FFF791FDC0F13200C4B2EB
:1038600000E000242046FFF787F8E7E7FFF7F8FEBF
:1038700000BFFCF7D6FF00F0E6FBFAE710B54FF407
:103880004070FCF7ABFD10BD10B50120FDF765F8E9
:103890002120FDF720F804460CB9002010BD4FF49C
:1038A000E0110020FDF75CF80120FDF765F800BF8E
:1038B0003920FDF710F80028FAD03920FDF70BF871
:1038C00004460220FDF75BF80020FDF766F80020B3
:1038D000FDF76CF80020FDF772F80120DEE710B567
:1038E000FCF7B6FF4FF48030FCF7D2FFFDF70FF87E
:1038F000FE49087008460078D8B94FF4E0114FF43B
:103900008030FDF72DF80120FDF736F800BF392093
:10391000FCF7E1FF0028FAD00220FDF730F8002084
:10392000FDF73BF84FF48060FDF740F80020FDF70D
:1039300046F810BD08B501210846FDF7E6F801215B
:10394000EB48FDF7FCF8012145F67D00FDF7EAF8AC
:103950000121E848FCF7DFFE4FF6FF70ADF80000EC
:1039600010208DF8030003208DF802006946E2481C
:10397000FCF702FE6946E148FCF7FEFD6946E048B7
:10398000FCF7FAFD6946DF48FCF7F6FD0120ADF8CB
:10399000000010208DF8030003208DF80200694616
:1039A000D548FCF7E9FD0120D74908604FF40060D5
:1039B000ADF800004FF048008DF803004FF0030011
:1039C0008DF802006946CF48FCF7D6FD08BD10B55A
:1039D00045F25550FCF71CFF0620FCF71CFF40F693
:1039E000FF70FCF71BFFFCF721FF10BD30B5C74887
:1039F00000684FF47A72B0FBF2F1B1F1807F01D32D
:103A000001201BE021F07F40401E4FF0E02250617A
:103A100050170F22002806DA1301BD4C00F00F05E5
:103A20002D1F635502E01301BA4C235400BF002040
:103A30004FF0E022906107201061002008B100BF24
:103A4000FEE730BD1FB56320ADF8080040F2CF207F
:103A5000ADF804000020ADF80A00ADF8060001A999
:103A60004FF08040FDF720FB1C208DF80000022065
:103A70008DF8010000208DF8020001208DF8030070
:103A80006846FCF7B0FC012211469007FDF783FE63
:103A900001218807FDF764FE1FBD1FB50920ADF8A1
:103AA000080041F61F40ADF804000020ADF80A0000
:103AB000ADF8060001A99848FDF7F6FA1D208DF82B
:103AC000000003208DF8010000208DF80200012085
:103AD0008DF803006846FCF786FC012211468E48EB
:103AE000FDF759FE01218C48FDF73AFE1FBD7047D6
:103AF00000B587B04FF40070ADF8180003208DF8C2
:103B00001A0018208DF81B0006A97B48FCF734FD2D
:103B10004FF48060ADF8180004208DF81B0006A952
:103B20007548FCF729FD4FF4E13002900020ADF814
:103B30000C00ADF80E00ADF81000ADF814000C202C
:103B4000ADF8120002A97548FEF72BF925208DF873
:103B5000040004208DF8050000208DF806000120E7
:103B60008DF8070001A8FCF73EFC012240F2255128
:103B70006A48FEF7AEF901216848FEF79EF907B0E2
:103B800000BD00B587B00420ADF8180003208DF803
:103B90001A0018208DF81B0006A95748FCF7ECFC0A
:103BA0000820ADF8180004208DF81B0006A9524823
:103BB000FCF7E2FC4FF4E13002900020ADF80C007D
:103BC000ADF80E00ADF81000ADF814000C20ADF803
:103BD000120002A95248FEF7E4F826208DF80400EE
:103BE00001208DF8050000208DF8060001208DF8D9
:103BF000070001A8FCF7F7FB012240F225514848D5
:103C0000FEF767F901214648FEF757F907B000BDF6
:103C100010B5FFF733FEFFF78DFEFFF7D8FEFFF775
:103C200066FFFFF70FFFFFF763FF482000F04CF936
:103C300010BD10B500203B490860486088604021F5
:103C400038480C3002F08DFE402136484C3002F0EE
:103C500088FE402133488C3002F083FE40213148F9
:103C6000CC3002F07EFE00212E48A0F80C11A0F806
:103C70000E11012180F81011002180F81111A0F817
:103C80001211A0F81411A0F8161180F8181190F86C
:103C90001A0120F00100234981F81A01084690F822
:103CA0001A0120F0020081F81A0100211D4880F855
:103CB0001B1100201B4981F81C010021194880F8C4
:103CC0001D1180F81E1190F81F0120F00101154808
:103CD00080F81F1190F81F0120F00201114880F8B0
:103CE0001F11002180F820111EE00000800000203C
:103CF00017081E000002300000080140000C0140BF
:103D00000010014000140140800121420000002009
:103D100018ED00E000E400E000040040003801403D
:103D200000440040D8410020A0F82211A0F824113E
:103D300010BD10B5FFF76CFF01F0A6FC02F062FDAC
:103D4000FFF777FF10BD00001CB5114803210023C9
:103D5000C022CDE900100FA11148FEF7E8FB114881
:103D600001210023C022CDE900100FA11148FEF768
:103D7000DEFB1CBD704710B5FFF7DBFFFFF7FAFF56
:103D8000FFF7E2FFFEF7FFFF002010BD70470000C5
:103D90008800002054696D65725461736B000000E7
:103DA0003B3800088C000020446973706C617954C2
:103DB00061736B006D380008704700BFFEE700BFFD
:103DC000FEE700BFFEE700BFFEE7704710B5012128
:103DD0008807FDF78EFF60B138480068401C3749FE
:103DE0000860084600683649884202D300203349FB
:103DF000086001218807FDF78DFF10BD10B540F266
:103E000025513048FEF74AF958B12E48FEF7C6F85A
:103E1000C4B22046FFF708FB40F225512948FEF7BF
:103E200067F940F226612748FEF738F9002844D0A8
:103E30002248B0F80C01002828DD2048B0F80E21F7
:103E4000B0F80E01401C83B21C48A0F80E310C30B3
:103E5000815C1C48FEF79EF81848B0F80E11B0F8C7
:103E60000C01814224D100211448A0F80C11A0F8C3
:103E70000E11002240F226611248FEF72AF80122B4
:103E800040F225510F48FEF724F811E000210B48BD
:103E9000A0F80C11A0F80E11002240F2266109488A
:103EA000FEF717F8012240F225510648FEF711F8F7
:103EB00040F226610348FEF71BF910BDD8410020EF
:103EC000005C2605003801404FF0E021096921F02F
:103ED00004014FF0E0221161C21700EB5272D210C0
:103EE000224B1A701946097801EB4102C2EBC1114D
:103EF0004FF6FF7202EAC1011D4A11807047014668
:103F00001B4A12884A434FF0E0235A6100229A610B
:103F100001221A6100BF4FF0E022106910F0010F7A
:103F200002D010F4803FF6D000224FF0E0231A6157
:103F30009A61704701460D4A12784A434FF0E023D8
:103F40005A6100229A6101221A6100BF4FF0E022FB
:103F5000106910F0010F02D010F4803FF6D000225B
:103F60004FF0E0231A619A61704700009000002032
:103F7000920000203EB504464EF67D7001F0DBFA5B
:103F80001F2000905448028814230021084600F0A6
:103F9000BDF81F200090504843880288408814389C
:103FA00081B2002000F0B2F84FF6FF704B49088054
:103FB000012010211F234FF6FF72CDE9004102902E
:103FC0000221002000F047FE0120102144A2CDE98B
:103FD0000021029040484088123881B21F234FF6DA
:103FE000FF72002000F037FE3EBD2DE9F843074682
:103FF0000C4690461D46089E012C10D14EF67D734E
:10400000002232217420009501F0A8F94EF67D734C
:1040100000223221C620009601F0A0F911E0022C06
:104020000FD14EF67D73002250217420009501F0CF
:1040300095F94EF67D7300225021C620009601F0BE
:104040008DF9BDE8F88308B5294890F8180110F0FB
:10405000010F39D00021264880F8181190F8CC00C3
:10406000012831D1224890F8D01090F8CF0041EAD1
:1040700000211F48A0F8221190F8D21090F8D1002A
:1040800041EA00211A48A0F82411B0F82401009058
:104090001748B0F8223190F8CE2090F8CD100120CA
:1040A000FFF7A3FF124890F8CD1001221046FFF74A
:1040B0008EF90520FEF760FC0D4890F81F0120F0F6
:1040C00002010B4880F81F114EF67D720021084650
:1040D00001F0F0FB08BD0000004300209600002026
:1040E000C7EBB0B4CCE1CABEB2D9D7F7000000002C
:1040F000D841002070B505460E4614463146284684
:1041000001F003FA204601F0C0F970BD2DE9F05F1F
:1041100004460D4616461F46301B401C1FFA80FA07
:10412000781B401C1FFA80FB3B463246294620463E
:1041300001F0C1F94FF000080FE04FF0000906E070
:104140000A9801F0A2F909F101001FFA80F9D1459E
:10415000F6DB08F101001FFA80F8D845EDDBFE48D8
:104160004088401E83B2FC480088401E82B2002175
:10417000084601F0A0F9BDE8F09F2DE9FF4F85B09A
:1041800081468A460020049003900798A0EB090519
:104190000898A0EB0A06CDF80890CDF804A0002DF1
:1041A00001DD012705E00DB9002702E04FF0FF37E0
:1041B0006D42002E02DD4FF0010806E016B94FF007
:1041C000000802E04FF0FF387642B54201DD2C4690
:1041D00000E034464FF0000B21E0019A91B2029AC0
:1041E00090B201F09CF9049828440490039830445C
:1041F00003900498A04205DD0498001B04900298E7
:10420000384402900398A04205DD0398001B0390F8
:104210000198404401900BF101001FFA80FB601CE3
:104220008345DADD09B0BDE8F08F2DE9F0410446A1
:104230000D4616461F462B46324629462046FFF7B6
:104240009CFF3B46224629462046FFF796FF3B4609
:10425000324639462046FFF790FF3B463246294614
:104260003046FFF78AFFBDE8F081F8B504460D46F9
:1042700016461F46B94800883B46324629460090FC
:104280002046FFF743FFF8BD2DE9F04104460D46F7
:1042900016461F46DDF81880EA1991B2A21990B2AD
:1042A0004246FFF727FFEA1991B2A21B90B242469D
:1042B000FFF720FFEA1B91B2A21990B24246FFF726
:1042C00019FFEA1B91B2A21B90B24246FFF712FF00
:1042D000AA1991B2E21990B24246FFF70BFFAA1950
:1042E00091B2E21B90B24246FFF704FFAA1B91B2C3
:1042F000E21990B24246FFF7FDFEAA1B91B2E21B03
:1043000090B24246FFF7F6FEBDE8F0812DE9FF4F7F
:1043100081B0824617469846DDF838B000244546FD
:104320004FEA4800C0F10306BBF1000F1FD01BE0AD
:10433000A14608E04B462246009750460299FFF7F7
:10434000A3FF09F10109A945F4DD002E04DA0420D8
:1043500000FB0460861D06E0601B042101FB006079
:1043600000F10A066D1E641CAC42E1DD18E015E0A8
:104370002B462246009750460299FFF785FF002EF4
:1043800004DA042000FB0460861D06E0601B0421A3
:1043900001FB006000F10A066D1E641CAC42E7DD03
:1043A00005B0BDE8F08F2DE9F04704460D461646EE
:1043B0001F46DDE908893B46324629462046FFF77D
:1043C000DCFE4B46424639463046FFF7D6FE2B46CA
:1043D000224649464046FFF7D0FEBDE8F0870288F6
:1043E0000B8803800A8070472DE9FF4F85B00026B7
:1043F0000027BDF81800BDF82010884207DD08A985
:1044000006A8FFF7ECFF07A905A8FFF7E8FFBDF82E
:104410002000BDF84C10884207DD08A913A8FFF75B
:10442000DEFF07A912A8FFF7DAFFBDF81800BDF8F4
:104430002010884207DD08A906A8FFF7D0FF07A9CA
:1044400005A8FFF7CCFFBDF81800BDF84C10884256
:1044500038D1BDF8140003900490BDF81C00BDF8DD
:104460001010884203DABDF81C00049008E0BDF883
:104470001C00BDF80C10884202DDBDF81C00039042
:10448000BDF84800BDF81010884203DABDF84800B6
:10449000049008E0BDF84800BDF80C10884202DD29
:1044A000BDF8480003902D4800880090BDF81830F2
:1044B000BDF80C201946BDF81000FFF727FE09B023
:1044C000BDE8F08FBDF81C00BDF81410A0EB010B87
:1044D000BDF82000BDF81810401A0290BDF8480041
:1044E000BDF81410451ABDF84C00BDF81810A0EB2B
:1044F0000109BDF84800BDF81C10A0EB010ABDF889
:104500004C00BDF82010401A0190BDF82000BDF805
:104510004C10884202D1BDF8208004E0BDF8200094
:10452000401E1FFA80F8BDF818402CE0029896FB58
:10453000F0F0BDF81410084480B2049097FBF9F035
:10454000BDF81410084480B203905E442F44BDF8B7
:104550001000BDF80C1003E000430020960000207E
:10456000884203DD03A904A8FFF739FFFE4800884D
:1045700023460090BDF80C202146BDF81000FFF73F
:10458000C5FD601C84B24445D0DDBDF82000201A72
:1045900000FB0AF6BDF81800201A00FB05F727E01B
:1045A000019896FBF0F0BDF81C10084480B204900E
:1045B00097FBF9F0BDF81410084480B203905644FC
:1045C0002F44BDF81000BDF80C10884203DD03A98C
:1045D00004A8FFF704FFE448008823460090BDF8D4
:1045E0000C202146BDF81000FFF790FD601C84B23E
:1045F000BDF84C008442D3DD00BF60E72DE9FF4FDA
:1046000083B081468A469346DDE91064D648008827
:104610000290A6F12000C6B204EBD47009EB600052
:10462000401E82B20AEB0400401E83B25146484647
:10463000019400F040FF129850BB002525E00C2C9F
:1046400007D106EB4600C94901EB800010F8058050
:1046500004E0C74800EB061010F8058000270DE0C5
:1046600018F0010F03D0584600F00FFF02E0069843
:1046700000F00BFF4FEA6808781CC7B204EBD47156
:10468000B7EB610FECDB681CC5B2A542D7DB2DE0B0
:10469000002529E00C2C07D106EB4600B34901EBBD
:1046A000800010F8058004E0B14800EB061010F817
:1046B0000580002711E0AC48A0F800B018F0010F09
:1046C00007D00AEB050291B209EB070290B200F0A5
:1046D00026FF4FEA6808781CC7B204EBD471B7EB29
:1046E000610FE8DB681CC5B2A542D3DB9E49029886
:1046F0000880A0484088401E83B29E480088401E23
:1047000082B20021084600F0D6FE07B0BDE8F08F67
:104710002DE9FE4306460F4615461C46DDF8288067
:104720001DE094480088401EB04204DB9148408858
:10473000401EB84201DABDE8FE8320788DE82101F1
:104740008D4803888848028839463046FFF756FF6F
:10475000284605EBD07106EB61018EB2641C20780F
:104760007E2802DC20782028DBDA00BFE3E710B5E2
:104770000246012000E050430B00A1F10104E1B228
:10478000F9D110BD2DE9FF4F83B0074691461E4673
:10479000109C4FF0000A002543E0701B401EC1B280
:1047A0000A20FFF7E4FFB9FBF0F00A21B0FBF1F2B9
:1047B00001FB1208BAF1000F1BD1701EA84218DDD0
:1047C000B8F1000F13D100202021A346CDE9001439
:1047D000029004EBDB71491001FB057188B2664958
:1047E0000B8861490A880499FFF708FF17E04FF02A
:1047F000010A002108F13000C0B2A346CDE9014111
:10480000009004EBDB71491001FB057188B25A4935
:104810000B8855490A880499FFF7F0FE00BF681C11
:10482000C5B2B542B9DB07B0BDE8F08F2DE9FC5F3A
:104830000546884691469A46DDF830B0009530200E
:10484000019000245FE004EB04104C4911F81000C3
:104850009BF80010884253D104EB0410474901EB48
:10486000400040789BF80110884249D108F10F00C0
:1048700083B205F10F0082B24146284600F01BFECC
:1048800000263BE0002734E00D9890B904EB0410BB
:104890003A4901EB4000801C805D8021394108428B
:1048A00003D0484600F0F1FD21E0504600F0EDFD58
:1048B0001DE02D48A0F8009004EB04102F4901EBF7
:1048C0004000801C805D80213941084203D0414670
:1048D000284600F024FE681C85B20098281A10288B
:1048E00005D1009D08F101001FFA80F803E0781C53
:1048F000C7B2082FC8DB00BF701CC6B2202EC1DBB8
:1049000000BF601C84B2019884429CDB1948408837
:10491000401E83B217480088401E82B2002108461C
:1049200000F0C9FDBDE8FC9F2DE9FC5F0546884607
:1049300091469A46DDF830B000954E200190002453
:1049400076E004EB840000EB44100D4911F81000F0
:104950009BF80010884268D104EB840000EB4410FF
:10496000074901EB40000DE09600002002700008AE
:10497000767400080043002098000020368C000860
:104980009692000840789BF8011088424DD108F1BA
:10499000170083B205F1170082B24146284600F0A5
:1049A0008AFD00263FE0002738E00D98A0B904EB0F
:1049B000840000EB4410F84901EB4000801C805D4E
:1049C00080213941084203D0484600F05EFD23E0D3
:1049D000504600F05AFD1FE0F048A0F8009004EBAC
:1049E000840000EB4410EC4901EB4000801C805D2A
:1049F00080213941084203D04146284600F08FFD0E
:104A0000681C85B20098281A182805D1009D08F165
:104A100001001FFA80F803E0781CC7B2082FC4DB3E
:104A200000BF701CC6B2482EBDDB00BF601C84B244
:104A30000198844285DBDA484088401E83B2D8481A
:104A40000088401E82B20021084600F034FDBDE817
:104A5000FC9F2DE9FC5F0546884691469A46DDF8A5
:104A600030B000950520019000245FE004EB841035
:104A7000CC4911F810009BF80010884253D104EB88
:104A80008410C84901EB400040789BF8011088422F
:104A900049D108F11F0083B205F11F0082B24146DF
:104AA000284600F008FD00263BE0002734E00D9882
:104AB00090B904EB8410BB4901EB4000801C805D81
:104AC00080213941084203D0484600F0DEFC21E055
:104AD000504600F0DAFC1DE0B048A0F8009004EB6E
:104AE0008410B04901EB4000801C805D8021394179
:104AF000084203D04146284600F011FD681C85B2EB
:104B00000098281A202805D1009D08F101001FFAFD
:104B100080F803E0781CC7B2082FC8DB00BF701C08
:104B2000C6B2802EC1DB00BF601C84B201988442F3
:104B30009CDB9B484088401E83B299480088401EF9
:104B400082B20021084600F0B6FCBDE8FC9F2DE9CA
:104B5000FF4F83B0064688469146DDE91147109D18
:104B6000B2464FF0000B71E0BBF1000F40D104EBF7
:104B7000D4718B4A1288A2EB6101B14204DB8849EF
:104B80004988091B414502DA07B0BDE8F08F287853
:104B9000802802DD4FF0010B58E028780D2806D15F
:104BA00008EB04001FFA80F856466D1C1EE0102C1E
:104BB0000DDD102128788DE883004A4641463046B5
:104BC000069BFFF71BFD06F1080086B20EE0287871
:104BD0008DE891004A4641463046069BFFF70EFDA0
:104BE000204604EBD07106EB61018EB26D1C2DE006
:104BF0006B480088001BB04204DB69484088001BFA
:104C0000404500DAC0E74FF0000B202C08D1CDE979
:104C100000574A4641463046069BFFF71AFF12E00E
:104C2000182C08D1CDE900574A4641463046069B2C
:104C3000FFF77AFE07E0CDE900574A464146304685
:104C4000069BFFF7F3FDAD1C301986B228780028CB
:104C50008AD100BF98E72DE9FE4F0E4617469846C9
:104C6000DDE90D9A0C9C204601F086FE85B24C4988
:104C70000988A1EBC50000EBD071C1F34F0B43468F
:104C80003A46314658468DE81006FFF760FFBDE80A
:104C9000FE8F2DE9F04706460F46154607F127001F
:104CA00083B206F1270082B23946304600F003FC99
:104CB00000240AE015F8149005EB440090F80180F8
:104CC00049EA082000F0E1FB641CB4F5C86FF1DB91
:104CD00033484088401E83B231480088401E82B26B
:104CE0000021084600F0E7FBBDE8F0872DE9FE4F04
:104CF00004460D4616461F46DDE90D9ADDF8308064
:104D00003B463246294620468DE80007FFF71FFF45
:104D1000BDE8FE8F2DE9FF4F83B0804689464946A6
:104D2000404600F0BDFD0598A0EB08050698A0EBF5
:104D30000906002D02DB0120029003E04FF0FF3056
:104D400002906D42002E02DB0120019003E04FF043
:104D5000FF30019076424FEA450A4FEA460BB542D2
:104D600022DDABEB0504002712E049464046109ACD
:104D700000F0A0FD002C05DBA4EB0A0401984844D8
:104D80001FFA80F95C44029840441FFA80F87F1CA7
:104D9000AF42EADD21E00000969200089600002074
:104DA0000043002022A90008AAEB0604002712E015
:104DB00049464046109A00F07DFD002C05DBA4EB2F
:104DC0000B04029840441FFA80F854440198484468
:104DD0001FFA80F97F1CB742EADD07B0BDE8F08F0B
:104DE000F8B504460D4616461F4644F208202B46E9
:104DF0003246294600902046FFF78CFF48F21040CB
:104E00006A1C93B291B2621C009090B23246FFF7D6
:104E100081FF44F208203B46224629460090204666
:104E2000FFF778FF48F21040631C9AB26B1C99B2EE
:104E3000631C009098B23B46FFF76CFF4FF6FF7083
:104E40003B463246394600902046FFF763FF4FF657
:104E5000FF703B463246294600903046FFF75AFF26
:104E6000F8BDF8B506460F4614461D464FF6FF70CE
:104E70003B462246394600903046FFF74BFF4FF63F
:104E8000FF702B463246394600903046FFF742FF0E
:104E900048F210406A1E93B291B2721C009090B218
:104EA0002246FFF737FF44F208202B4622462946C8
:104EB00000903046FFF72EFF48F21040631E9AB272
:104EC0007B1C99B2631E009098B22B46FFF722FF1D
:104ED00044F208202B462246394600902046FFF730
:104EE00019FFF8BD2DE9F84305460E4617469846CA
:104EF000089C33463A46314628460094FFF70AFF9D
:104F000043462A46314628460094FFF703FF3346BE
:104F10003A46414638460094FFF7FCFE43462A468F
:104F2000414638460094FFF7F5FEBDE8F8832DE9C9
:104F3000F84F0646884693469A46DDF82890009634
:104F4000ABE099F80000802835DA99F80070202F3E
:104F500003DDA7F1200087B200E00027002422E053
:104F600000251CE0F94800EB0710005DC5F10702C1
:104F700080211141084208D008EB040291B2721955
:104F800090B25A4600F096FC07E008EB040291B29A
:104F9000721990B2524600F08DFC681CC5B2082D03
:104FA000E0DB601CC4B2102CDADB06F1080086B22C
:104FB00009F1010971E0002768E007EB0710E449F7
:104FC00011F8100099F8001088425DD107EB071026
:104FD000DF4901EB4000407899F80110884253D135
:104FE00000244FE0002520E007EB0710D84901EB33
:104FF0004000801C10F8141080202841014208D085
:1050000008EB040291B2721990B25A4600F052FCB9
:1050100009E0D34507D008EB040291B2721990B2AF
:10502000524600F047FC681CC5B2082DDCDB0025A9
:1050300024E007EB0710C64901EB4000801C01216A
:1050400001EB4401405C80212941084209D008EB72
:10505000040291B27219083290B25A4600F02AFC4A
:105060000AE0D34508D008EB040291B27219083265
:1050700090B2524600F01EFC681CC5B2082DD8DB69
:10508000601CC4B2102CADDB781C87B24B2F94DBB4
:1050900009F1020906F1100086B299F80000002813
:1050A0007FF44FAFBDE8F88F2DE9F05F06460F465D
:1050B00093469A46DDF8289004E199F8000080288C
:1050C0005ADA99F80080B8F1200F04DDA8F1200029
:1050D0001FFA80F801E04FF00008002544E00024AA
:1050E0001BE008EB48009B4901EB001010F815008D
:1050F00080212141084207D07A1991B2321990B229
:105100005A4600F0D7FB06E07A1991B2321990B2F4
:10511000524600F0CFFB601CC4B2082CE1DB002437
:105120001EE008EB48008B4901EB00116800401CB1
:10513000095C80202041014208D07A1991B23219CD
:10514000083290B25A4600F0B5FB07E07A1991B2E6
:105150003219083290B2524600F0ACFB601CC4B267
:10516000082CDEDB681CC5B2182DB8DB06F10C007C
:1051700086B209F10109A5E04FF0000899E008EBBB
:10518000880000EB4810744911F8100099F80010DD
:10519000884277D108EB880000EB48106E4901EB9C
:1051A0004000407899F8011088427ED100257AE0CD
:1051B000002421E008EB880000EB4810664901EB71
:1051C0004000801C05EB4501415C802020410142EC
:1051D00007D07A1991B2321990B25A4600F06AFBA0
:1051E00008E0D34506D07A1991B2321990B25246EE
:1051F00000F060FB601CC4B2082CDBDB002424E060
:1052000008EB880000EB4810534901EB4000801C7C
:1052100005EB4501491C405C80212141084208D032
:105220007A1991B23219083290B25A4600F042FB14
:1052300009E0D34507D07A1991B23219083290B2F9
:10524000524600F037FB601CC4B2082CD8DB0024A7
:1052500025E008EB880000EB48103F4901EB4000D7
:10526000801C05EB4501891C405C802121410842DE
:1052700009D07A1991B23219103290B25A4600F020
:1052800019FB0AE011E0D34507D07A1991B232191F
:10529000103290B2524600F00DFB601CC4B2082CD4
:1052A000D7DB681CC5B2182D82DB08F101001FFA9C
:1052B00080F8B8F1550FFFF662AF09F1020906F167
:1052C000180086B299F8000000287FF4F6AEBDE819
:1052D000F09F2DE9F047074688469146002531E0CA
:1052E00000242BE0002625E005EB450004EB400000
:1052F00019F80000C6F107020121914008420CD0C4
:1053000008EB050291B2082202FB0472324490B20B
:105310004EF67D7200F0CEFA0AE008EB050291B27B
:10532000082202FB0472324490B2002200F0C2FA5A
:10533000701CC6B2082ED7DB601CC4B2062CD1DBB1
:10534000681CC5B2302DCBDBBDE8F0877674000851
:10535000368C0008667A0008969200082DE9F04F16
:1053600085B006460F4690469946DDF838A04FF0C6
:10537000000B00200390049028A103C9CDE901018E
:10538000554600240EE00A2095FBF0F100FB115079
:10539000C4F1040103AA50540A2095FBF0F085B231
:1053A000601CC4B2052CEEDB002413E003A8005DF2
:1053B000002801DD4FF0010BBBF1000F03D12020CD
:1053C00001A9085504E003A8005D303001A9085583
:1053D000601CC4B2052CE9DB9DF80400202812D122
:1053E0009DF8050020280ED19DF8060020280AD13E
:1053F0009DF80700202806D19DF80800202802D13A
:1054000030208DF8080001A84B46424639460090EE
:105410003046FFF78CFD05B0BDE8F08F202020203E
:105420002000000010B504461020FE49086000016D
:10543000FD4908602146FD4800F0C8FA1020F949EE
:10544000091F086010BD10B504461020F54908601A
:105450000001F549091F08602146F44800F0B6FA3A
:105460001020F049091F086010BD70B505460C46B4
:105470002846FFF7D7FFE0B2FFF7E5FF70BD10B594
:10548000EB49087AFFF7CEFF10BD10B50446102097
:10549000E44908600001E449091F08602112E3485B
:1054A00000F094FAE1B2E14800F090FA1020DD49F2
:1054B000091F086010BD2DE9F04104460D4616464F
:1054C0001F46DB49887AFFF7ADFF2012FFF7BBFFCD
:1054D000E0B2FFF7B8FF3012FFF7B5FFF0B2FFF709
:1054E000B2FFD349087BFFF79DFF2812FFF7ABFF00
:1054F000E8B2FFF7A8FF3812FFF7A5FFF8B2FFF7F1
:10550000A2FFFFF7BCFFBDE8F08170B504460D4671
:105510002B46224629462046FFF7CDFF70BD70B5C9
:1055200004460D4629462046FFF7EFFFC148008894
:10553000FFF7ABFF70BD70B50646BD484088401E02
:1055400083B2BB480088401E82B200210846FFF7A4
:10555000B2FF1020B34908600001B349091F086079
:1055600000240AE0002503E03046FFF78EFF6D1CA3
:10557000AF480088A842F7D8641CAD484088A042D4
:10558000F0D81020A749091F086070BD08B5142085
:10559000ADF8000003208DF8020010208DF8030004
:1055A0006946A0481438FAF7E7FF4FF44070ADF8A9
:1055B000000003208DF8020010208DF803006946DA
:1055C00099481438FAF7D8FF1020ADF800000320EE
:1055D0008DF8020010208DF8030069469648FAF70E
:1055E000CBFF08BD10B51020934948616420FEF739
:1055F00086FC1020904908613220FEF780FC10BD27
:1056000010B504462A208A4948812B2088812C2005
:10561000088134B1012C10D0022C1AD0032C30D1C7
:1056200023E04FF4A070824908804FF4F070488066
:1056300048213620FFF719FF24E04FF4F0707C4931
:1056400008804FF4A070488028213620FFF70DFF16
:1056500018E04FF4A070764908804FF4F07048804D
:1056600088213620FFF701FF0CE04FF4F0707049FD
:1056700008804FF4A0704880E8213620FFF7F5FE3F
:1056800000E000BF00BF10BD10B500F051F9FFF7FA
:105690007DFFFFF7A7FFF020FFF7C4FEC320FFF751
:1056A000D2FEF020FFF7BEFE9620FFF7CCFE36209C
:1056B000FFF7B8FE6820FFF7C6FE3A20FFF7B2FEFC
:1056C0000520FFF7C0FEB020FFF7ACFE8020FFF7FB
:1056D000BAFEB620FFF7A6FE0020FFF7B4FE0220B8
:1056E000FFF7B1FEB520FFF79DFE0220FFF7ABFEEE
:1056F0000320FFF7A8FE0020FFF7A5FE0420FFF718
:10570000A2FEB120FFF78EFE8020FFF79CFE102046
:10571000FFF799FEB420FFF785FE0020FFF793FE08
:10572000B720FFF77FFEC620FFF78DFEC520FFF7ED
:1057300079FE2420FFF787FEE420FFF773FE312077
:10574000FFF781FEE820FFF76DFE4020FFF77BFEAC
:105750008A20FFF778FE0020FFF775FE0020FFF794
:1057600072FE2920FFF76FFE1920FFF76CFEA520BF
:10577000FFF769FE3320FFF766FEC220FFF752FEF7
:10578000A720FFF74FFEE020FFF74CFEF020FFF7C9
:105790005AFE0920FFF757FE1320FFF754FE122090
:1057A000FFF751FE1220FFF74EFE2B20FFF74BFEB6
:1057B0003C20FFF748FE4420FFF745FE4B20FFF753
:1057C00042FE1B20FFF73FFE1820FFF73CFE17208C
:1057D000FFF739FE1D20FFF736FE2120FFF733FECD
:1057E000E120FFF71FFEF020FFF72DFE0920FFF755
:1057F0002AFE1320FFF727FE0C20FFF724FE0D20C2
:10580000FFF721FE2720FFF71EFE3B20FFF71BFEC0
:105810004420FFF718FE4D20FFF715FE0B20FFF781
:1058200012FE0BE014080140141801400030014042
:105830000043002096000020001001401720FFF7D1
:1058400002FE1720FFF7FFFD1D20FFF7FCFD2120C2
:10585000FFF7F9FD3620FFF7E5FDEC20FFF7F3FD3C
:10586000F020FFF7DFFDC320FFF7EDFDF020FFF78D
:10587000D9FD6920FFF7E7FD1320FFF7D3FD1120C5
:10588000FFF7D0FD2920FFF7CDFD0120FFF7B8FE7F
:105890000120244908604EF67D70FFF74CFE10BDD4
:1058A00070B504460D462B46224629462046FFF792
:1058B00002FE70BD70B505460E46144631462846B8
:1058C000FFF723FE2046FFF7E0FD70BD2DE9F0470E
:1058D00006460F4614461D46DDF820A0681E83B21A
:1058E000601E82B239463046FFF7E5FD10200E49B2
:1058F000086000010D490860B8460AE0B14604E0BE
:105900005046FFF7C2FD09F10109A145F8D308F19E
:105910000108A845F2D310200349091F0860BDE81B
:10592000F0870000A4012342140801401018014030
:1059300000B587B0A020ADF8040003208DF8060064
:1059400018208DF8070001A92848FAF715FE402015
:10595000ADF8040048208DF8070003208DF80600FC
:1059600001A92248FAF708FE0020ADF808004FF41C
:105970008270ADF80A000020ADF80C00ADF80E0002
:10598000ADF810004FF40070ADF812000020ADF833
:105990001400ADF816000720ADF8180002A914484D
:1059A000FBF74EF901211248FBF7EFF907B000BDF4
:1059B00002884FF6C7731A400280028842EAC10289
:1059C0000280028842F0400202807047024600BF17
:1059D000108910F0020FFBD0918100BF108910F0E8
:1059E000010FFBD09089C0B2704700000008014051
:1059F00000300140002100BF19E010F0800F03D0FB
:105A00000122FE4B1A6002E00022FC4B1A604FEAB2
:105A100040624FEA12604FF00002F94B1A604FF0FB
:105A20000102F84BC3F8B42101F10102D1B20829F7
:105A3000E3DB704770B50646002500240020F049DE
:105A40000860F049C1F8B801EF4908603046FFF737
:105A5000D1FF0620FEF76EFA0020EA49C1F8B40132
:105A60000120FEF767FA0120E54908604FF00000C9
:105A7000E449C1F8B40100BF12E04FF6FF7000EA3C
:105A800044040020DE4908604FF00100DD49C1F800
:105A9000B401DE48006808B1601C84B2681CC5B25D
:105AA000102DEADB24110120D7490860204670BD83
:105AB0002DE9FE4380460027002406E04046FFF71C
:105AC000B9FF2DF81400601C84B2052CF6DB00240D
:105AD00016E0601C85B20FE03DF814003DF815108B
